:020000040800F2
:1000000078BB002445040008AF700008D96B0008D5
:10001000AD70000861110008159A0008000000008A
:100020000000000000000000000000008503000840
:100030004D17000800000000E1030008F5730008F8
:1000400063040008630400086304000863040008F4
:1000500063040008630400086304000863040008E4
:1000600063040008630400086304000865120008C4
:10007000711200087D12000889120008630400084C
:100080006304000863040008630400087117000893
:10009000630400087D170008630400086304000877
:1000A0006304000885750008630400086304000801
:1000B00091750008630400086304000863040008E5
:1000C0006304000863040008630400086304000874
:1000D00063040008897F000863040008957F000816
:1000E00063040008630400080000000063040008C3
:1000F0006304000863040008630400086304000844
:100100006304000863040008630400086304000833
:100110006304000863040008630400086304000823
:100120006304000863040008630400086304000813
:100130006304000863040008630400086304000803
:1001400000000000000000000000000000000000AF
:1001500063040008630400086304000863040008E3
:1001600063040008630400086304000863040008D3
:1001700063040008B1700008630400080000000078
:1001800063040008630400086304000863040008B3
:1001900063040008630400086304000863040008A3
:1001A0006304000863040008630400080000000002
:1001B0006304000863040008630400086304000883
:1001C0006304000863040008000000000000000051
:1001D00000000000000000006304000800000000B0
:1001E000000000000000000000000000000000000F
:1001F0000000000000000000630400086304000821
:1002000063040008630400080000000063040008A1
:100210006304000863040008630400086304000822
:1002200063040008000000006304000800000000F0
:100230006304000863040008000000006304000871
:1002400063040008630400086304000863040008F2
:1002500063040008630400086304000863040008E2
:1002600063040008630400086304000863040008D2
:100270006304000863040008630400080000000031
:1002800063040008630400086304000863040008B2
:100290000000000063040008630400080000000080
:1002A0000000000063040008630400086304000801
:1002B0006304000863040008630400086304000882
:1002C00063040008630400086304000800F002F8F7
:1002D00000F049F80AA090E8000C82448344AAF197
:1002E0000107DA4501D100F03EF8AFF2090EBAE895
:1002F0000F0013F0010F18BFFB1A43F0010318475A
:1003000074C9000094C90000103A24BF78C878C1AD
:10031000FAD8520724BF30C830C144BF04680C600B
:10032000704700000023002400250026103A28BF53
:1003300078C1FBD8520728BF30C148BF0B60704757
:100340001FB50CF0F3F99DE8030000F0D3FB00F0BB
:10035000AFFE0400002000210CF0DCF8401C6060BF
:100360001FBD10B510BD00F039FE1146FFF7E8FFC4
:100370000AF0CAF900F060FE03B4FFF7F2FF03BC15
:1003800000F090FE2C4B19680868B0E8F04F80F33D
:100390000988BFF36F8F4FF0000080F3118870471A
:1003A0000000000008480068006880F308884FF0EB
:1003B000000080F3148862B661B6BFF34F8FBFF3BD
:1003C0006F8F00DF00BF00BF08ED00E0DFF80C001A
:1003D000016841F470010160704700BF88ED00E0E2
:1003E000EFF30980BFF36F8F134B1A681EF0100FE5
:1003F00008BF20ED108A20E9F04F106009B44FF0DB
:10040000500080F31188BFF34F8FBFF36F8F0BF055
:10041000DBFA4FF0000080F3118809BC1968086806
:10042000B0E8F04F1EF0100F08BFB0EC108A80F358
:100430000988BFF36F8F70472C000024EFF305800D
:10044000704700000A4880470A4880470A4800472A
:10045000FEE7FEE7FEE7FEE7FEE7FEE7FEE7FEE774
:10046000FEE7FEE705480649064A074B70470000CD
:1004700055170008AD740008CD020008787B0024F1
:1004800078BB0024789B0024789B002470B5064636
:1004900000F014FB056806F10B0020F00704B442DD
:1004A0009CBF002070BD2B466A68BAB11068A0429C
:1004B00010D304F1080188423CBF5068586007D34C
:1004C0005168101941601168091B0160586014607F
:1004D000101D70BD13465268002AE7D121462846F8
:1004E00000F0F4FA0028DED170BD70B50446051F97
:1004F00000F0E4FA0068002C14BF446870BD002CC2
:1005000018BFAC423CBF20466468F8D301680A18A3
:10051000AA4218BF456003D12A680546114401600C
:1005200028684119A1421CBF6C6070BD6168696098
:1005300021680844286070BD53EA020C00F069800D
:100540002DE9F04B4FF00006002B1FBFB3FA83F5E7
:1005500003FA05F424FA05F65E4012BF1643B2FA18
:1005600082F502FA05F4C5F120051EBF22FA05FC4A
:1005700044EA0C04203556EA044C4FEA144418BFF0
:10058000641C4FF000084FF00009904271EB030C1F
:1005900039D3002919BFB1FA81F701FA07F6B0FA89
:1005A00080F700FA07F6C7F120071EBF20FA07FC04
:1005B00046EA0C062037B6FBF4FCA7EB0507103F14
:1005C00007F01F0BCBF120060CFA0BFB2CFA06F6FA
:1005D00044BFB3460026202FA4BF5E464FF0000B59
:1005E0005BEA060C08BF4FF0010B19EB0B09ABFBE4
:1005F000027C48EB0608C01B06FB02CC0BFB03CCBD
:1006000071EB0C01C1E70B46024641464846BDE886
:10061000F08B13B54FF000004FF00001AFF30080F6
:10062000BDE81C40704700000FB400B58DB010A9A4
:10063000099000910B904FF0FF300A9000200C9031
:10064000064878440690064878446A4607900F9911
:1006500009A800F0A5FA0DB05DF814FB7B050000B9
:10066000930500002DE9FF5F1D464FF0FF3B9146CB
:100670004FF000085F46D5E90146A96901987F1C43
:100680008847296A824688470028F6D1BAF1FF3F99
:100690000CD0002E24F4C06419DD600614D5BAF124
:1006A0002B0F09D0BAF12D0F0ED103E0584604B03C
:1006B000BDE8F09F44F48064A96901987F1C8847D5
:1006C000761E8246002E02DDBAF1300F03D0B9F15A
:1006D000000F26D032E0A969761E01987F1C44F4F1
:1006E00000748847002E824605DDBAF1780F06D0E7
:1006F000BAF1580F03D0B9F1000F10D01EE0B9F1D4
:10070000000F02D0B9F1100F18D1A969761E019817
:100710007F1C24F4007488478246102002E00820E1
:1007200000E00A20814609E0A96908FB0908761E55
:1007300001987F1C44F4007488478246002E05DD32
:100740004946504600F017FA0028EDDAE9690198A9
:100750008847A00502D46FF00100A8E7E00725D183
:10076000600613D5600502D5C8F1000000E04046E0
:1007700029680A1D2A600968220501D5087015E05C
:10078000220701D5088011E008600FE02868011DEC
:1007900029600068210502D580F8008006E0210765
:1007A00002D5A0F8008001E0C0F8008038467EE75E
:1007B0002DE9FF5F4FF000089946144646469169BF
:1007C000D2E901A7DDF838B001988847054659EA13
:1007D0000B0005D009E0A1690198761C8847054601
:1007E000216A284688470028F5D1681C03D05FEAB3
:1007F000CA7005D015E04FF0FF3004B0BDE8F09F9F
:100800002068011D2160D0F800800AE05FEACA700C
:1008100001D108F8015BA169761C01987F1E884709
:100820000546002F1ADD681C18D0B9F1000F0DD055
:10083000E81705EBD060421120F01F0059F8221094
:100840002A1A012090400142E0D107E0BBF1000FDD
:10085000DCD12846216A88470028D7D0E169019871
:100860008847BBF1000F07D1002E05DD5FEACA7093
:1008700002D1002188F80010A068B84203DDBBF166
:10088000000F03D017B16FF00100B6E73046B4E7B0
:1008900040EA010370B59B072ED14FF00136042AC0
:1008A0002AD308C810C99D1B9D43121F15EAC615FF
:1008B00017D0D8B2E1B2401A50EA056110D198B20F
:1008C000A1B2401A50EA05410AD123F07F4024F03A
:1008D0007F41401A50EA052102D1180EA0EB1460A6
:1008E00070BDA342DBD018BA21BA884201D90120D9
:1008F00070BD4FF0FF3070BD0AB9002070BD10F818
:10090000013B11F8014B63B1A3420AD1521E08D03A
:1009100010F8013B11F8014B1BB1A34201D1521E4B
:10092000EDD1181B70BD032A40F2308010F0030C8B
:1009300000F0158011F8013BBCF1020F624498BF32
:1009400011F801CB00F8013B38BF11F8013BA2F1CF
:10095000040298BF00F801CB38BF00F8013B11F04A
:10096000030300F02580083AC0F0088051F8043BEA
:10097000083A51F804CBA0E80810F5E7121D5CBF57
:1009800051F8043B40F8043BAFF30080D20724BF8A
:1009900011F8013B11F801CB48BF11F8012B24BF1E
:1009A00000F8013B00F801CB48BF00F8012B70476D
:1009B00010B5203AC0F00B80B1E81850203AA0E8FA
:1009C0001850B1E81850A0E81850BFF4F5AF5FEA2E
:1009D000027C24BFB1E81850A0E8185044BF18C9E1
:1009E00018C0BDE810405FEA827C24BF51F8043B88
:1009F00040F8043B08BF7047D20728BF31F8023BDC
:100A000048BF11F8012B28BF20F8023B48BF00F86F
:100A1000012B704702F0FF0343EA032242EA02423D
:100A200000F002B84FF000020429C0F0128010F06C
:100A3000030C00F01B80CCF1040CBCF1020F18BFBA
:100A400000F8012BA8BF20F8022BA1EB0C0100F04D
:100A50000DB85FEAC17C24BF00F8012B00F8012B20
:100A600048BF00F8012B70474FF0000200B5134655
:100A700094469646203922BFA0E80C50A0E80C50BE
:100A8000B1F12001BFF4F7AF090728BFA0E80C506F
:100A900048BF0CC05DF804EB890028BF40F8042B68
:100AA00008BF704748BF20F8022B11F0804F18BFD5
:100AB00000F8012B70477047704770470048704737
:100AC0001C7B0024704770477047704738B5044658
:100AD0000A4600206946AFF30080002808BF38BDF1
:100AE00002460099204600F093F8012038BD01200D
:100AF00000F06CBAF8B5AFF30080054600200C4654
:100B0000102000BF0646A819A0420DD932466946FA
:100B10000020AFF30080070008BF00F057FA0098EC
:100B2000A04218BF0546C419FFF7C8FF0560074675
:100B3000F01D20F007004619284600F00AF8B442DC
:100B400008BFF8BDA21B31463868BDE8F84000F088
:100B50005FB800210160C0E90110704710207047A4
:100B600010B500F051F8006810BD10B5044600F053
:100B70004BF8046010BD3A2800D2303820F0200233
:100B8000412A01D3A2F13700884201D34FF0FF3050
:100B900070470000026811441378016018467047DE
:100BA000D1600549794451610449794411620021B9
:100BB0001161114600F050B8EDFFFFFF97000000F3
:100BC000426842B1016811F8013B23B1521EC0E9ED
:100BD0000012184670470121C160881E70474268A4
:100BE0005AB1C368016843B983688B4205D0491E76
:100BF000521CC0E90012002070474FF0FF307047D0
:100C000000487047147B002400487047147B002480
:100C1000034640688C46002818BF88423CBF034604
:100C20004068F8D318681844884207D00CF10300D4
:100C300020F00700001D411A521A0146081D0A60E3
:100C4000FFF753BC10B5044600F0EEF90068005DF4
:100C500000F0010010BD00002DE9F34F4FF0000A35
:100C60000C4656468DB001200C9001F10C000B9003
:100C700062690B9801219047051E2DD0252D2CD09F
:100C8000216A8847C0B162690B9801219047216AA7
:100C900088470028F7D16269411E0B98904700E011
:100CA000761CA1690D988847216A88470028F7D1EA
:100CB000E1690D988847DBE7A1690D988847A8424C
:100CC000074601D1761CD3E7E1690D9888477F1C60
:100CD00002D1BAF1000F6FD06BE162690B98002767
:100CE0003D46394690472A2804D162690B98012174
:100CF00090470125DFF8D08262690B980121904767
:100D0000A0F130010A290AD24745E5DC07EB87014B
:100D100000EB4107303FDFD445F01005ECE7E90672
:100D200001D46FF000476C280AD04C2814D06828F2
:100D300015D06A280DD074281CD07A281AD01DE04E
:100D400062690B98012190476C2802D045F0040598
:100D500014E045F002050DE045F020050AE0626967
:100D60000B9801219047682802D045F0080505E05E
:100D700045F4006562690B9801219047C4E9015769
:100D800065283DD019DC58287AD00CDC452837D0AE
:100D900004DC252826D041289ED131E046282FD0DA
:100DA000472899D12CE05B2877D0612828D0632888
:100DB0007CD0642823D15AE0F6E06F2848D008DCC4
:100DC00066281DD067281BD0692821D06E2816D12F
:100DD00027E0702845D0732868D0752847D0782838
:100DE0000DD14DE0A1690D988847252805463FF4AF
:100DF00069AFE1690D9888476D1C3FF46AAFD8E090
:100E00000D9923466A466FF00100AFF30080C5E0FC
:100E100045F0400023464FF000026060A80736D43A
:100E20003EE0E8077FF447AF2068011D21600068BD
:100E3000290501D506701BE7290701D5068017E7AC
:100E4000A90703D5F117C0E9006111E706600FE7B4
:100E500045F0400023464FF008026060A80716D412
:100E60001EE040F60E0125EA0100606016E045F044
:100E7000400023464FF00A026060A80707D40FE045
:100E800045F040006060A80708D5234610220D9960
:100E90006FF00100AFF3008080E007E010222346EE
:100EA0000D996FF00100FFF7DDFB77E04FF00009CF
:100EB00063284F46C8464B46CB4602D05B2806D037
:100EC00038E0E80601D40120A060012732E0626921
:100ED000D4F80CB00B98012190475E2807D14FF051
:100EE000010949466269D4F80CB00B989047216912
:100EF00039B900210A4603AB43F82120491C0829CF
:100F0000FADBD8B3216949B308F1010862690B988B
:100F1000012190475D28F4D1B9F1000F09D00020DC
:100F200003A951F82020D24341F82020401C082872
:100F3000F7DB03AB2069002820794FEA40701ED010
:100F40005B462246CDF80080CDE901970D99002837
:100F50006FF0010020DAAFF300801FE0C11703AA91
:100F600000EBD1614B1121F01F0102EB8302411A0A
:100F700013680120884003431360C7E719E00D9907
:100F8000224600286FF00100009702DAAFF30080DC
:100F900004E0FFF70DFC01E0AFF3008000280ADA5F
:100FA000401C06D10C9820B14FF0FF300FB0BDE8C7
:100FB000F08F5046FAE7E90701D10AF1010A064429
:100FC00000200C9054E60000CCCCCC0C10B500F006
:100FD00041F8BDE8104000F038B870477546FFF79B
:100FE0000FFEAE4605006946534620F007008546D1
:100FF00018B020B5FFF736FABDE820404FF00006E4
:101000004FF000074FF000084FF0000B21F00701F0
:10101000AC46ACE8C009ACE8C009ACE8C009ACE833
:10102000C0098D467047000010B500F041F8001D62
:1010300010BD00BFE1B4000010B50446AFF300805E
:101040002046BDE81040FFF797B9002801D000F016
:1010500029B8704710B5012805D0002103A000F081
:101060002BF8012010BD09A1F8E7000053494752B1
:10107000544D454D3A204F7574206F662068656168
:1010800070206D656D6F7279000000003A20486530
:101090006170206D656D6F727920636F727275700B
:1010A0007465640001491820ABBEFEE7260002000B
:1010B00000487047347B002470B505460C460A2072
:1010C00000E06D1C00F011F835B128780028F8D147
:1010D00002E0641C00F009F814B120780028F8D16F
:1010E000BDE870400A20AFF3008008B569468DF86E
:1010F00000000320ABBE08BD4FF0013C50F8042BAC
:1011000051F8043B9A4215D1A2EB0C03934313EA26
:10111000CC130BD150F8042B51F8043B9A4209D15F
:10112000A2EB0C03934313EACC13E7D04FF000007B
:10113000704700BFD01A01BAB1FA81F101F018016D
:1011400022FA01F0CB40C1F12001DBB2C0B2C01ADB
:101150002CFA01F3D11A914311EAC311E6D1704779
:10116000FEE770B5054600F58050D0F8B400C469BC
:1011700094F84E0003281AD0042821D1217B284658
:1011800007F039FC01281BD1217B284607F01AFC07
:10119000A16A814215D0628B824212D1226A0B1A57
:1011A000A362032184F84E10104420620FE0237BD9
:1011B0002846628B216A06F013FF042084F84E0053
:1011C00070BD002084F84E00284607F093F80023F5
:1011D0002846BDE8704004211A4607F0C1BCF8B5A6
:1011E000064600F580500125D0F8B400C46994F893
:1011F0004D0001280CD0022818D1617B304607F041
:10120000FAFB012813D0022810D184F84D5020E0B9
:10121000228B606A0095637B9042E16900D882B2BC
:10122000304606F0EDFE022084F84D00F8BD208B1C
:101230000021626A824206D9E369121A6262184486
:10124000E061E2D100E06162304684F84D1007F0C1
:101250006FF801B03046002304211A46BDE8F04083
:1012600007F07EBC014800F0D5BF00000803002451
:10127000014800F0CFBF000080030024014800F0C7
:10128000C9BF0000F8030024014800F0C3BF0000FC
:1012900070040024294A016891423AD0274A183242
:1012A000914236D0254A3032914232D0234A4832D8
:1012B00091422ED0214A603291422AD01F4A783280
:1012C000914226D01D4A9032914222D01B4AA83228
:1012D00091421ED01A4A91421BD0194A18329142AB
:1012E00017D0174A3032914213D0154A48329142F2
:1012F0000FD0134A603291420BD0114A783291429A
:1013000007D00F4A9032914203D00D4AA832914241
:1013100011D1CAB21823103AB2FBF3F26FF30901EC
:10132000032A02F00703074AD25CC26500D9091DEF
:1013300081650846704721F0FF01F9E7100002407F
:101340001004024010C8000830B5224A0123016889
:101350009142CAB21BD01F4C1434A14217D01D4C6D
:101360002834A14213D01B4C3C34A1420FD0194C5D
:101370005034A1420BD0174C6434A14207D0154C15
:101380007834A14203D0134C8C34A1420CD11421E7
:10139000114C083AB2FBF1F10F4A803201F01F05FF
:1013A00004EB8101AB4010E00C4D1824103A0D44C1
:1013B000B2FBF4F1A82D00D80831094A01F01F044E
:1013C00002EB8101064AA3408032603080E80E00C3
:1013D00030BD00000854025800580258F0FBFDBF11
:1013E0000008024010B50279531E072B2DD8174C68
:1013F0000168A1421BD0154C1434A14217D0134CE4
:101400002834A14213D0114C3C34A1420FD00F4CD0
:101410005034A1420BD00D4C6434A14207D00B4C88
:101420007834A14203D0094C8C34A14203D108493D
:10143000074C443102E00749064C443104EB820278
:10144000C0E91B2101219940416710BD0854025891
:10145000FC580258FC08024010B583694FF0C07474
:10146000826A0146002053B1B3F5005F15D072B116
:10147000012A0CD0022A0AD0032A09D104E01AB1A9
:10148000012A06D0022A03D1C96AC90100D5012068
:1014900010BDC96AA142FAD010BD002AF7D0012AB6
:1014A000F2D0022AF3D0032AF3D010BD2DE9F04F79
:1014B000804E804FDFF8FC911836DFF8F8A14837EE
:1014C0000468856D0AF1300ADFF8ECB14C45DFF8AD
:1014D000ECC1DFF8ECE16DD0B4426BD0544569D07B
:1014E000BC4267D0DFF8D081A8F11808444561D02C
:1014F0005C455FD064455DD074455BD0DFF8C48146
:10150000444557D0DFF8BC8108F11808444551D054
:10151000DFF8B08108F1300844454BD0DFF8A481F2
:1015200008F14808444545D0DFF8988108F1600883
:1015300044453FD0DFF88C8108F17808444539D024
:10154000DFF8808108F19008444533D0DFF87481DA
:1015500008F1A80844452DD0DFF86C81444529D016
:10156000DFF8648108F11408444523D0DFF858817E
:1015700008F1280844451DD0DFF84C8108F13C08EB
:10158000444517D0DFF8408108F15008444511D098
:10159000DFF8348108F1640844450BD0DFF8288176
:1015A00008F17808444505D0DFF81C8108F18C0863
:1015B000444509D1D0E91948C4F80480C46E1CB16F
:1015C000D0E91C48C4F8048004684C452ED0B442CD
:1015D0002CD054452AD0BC4228D0374E183EB442B5
:1015E00024D05C4522D0644520D074451ED0354EB1
:1015F000B4421BD0334E1836B44217D0314E303679
:10160000B44213D02F4E4836B4420FD02D4E603620
:10161000B4420BD02B4E7836B44207D0294E9036C8
:10162000B44203D0274EA836B44215D190F85C607E
:101630003F2406F01F06B440AC600468256825F41A
:10164000802525602EE09A600068C160BDE8F08FBB
:1016500099600068C260F9E71B4EB4421BD01A4E75
:101660001436B44217D0184E2836B44213D0164E52
:101670003C36B4420FD0144E5036B4420BD0124E0A
:101680006436B44207D0104E7836B44203D00E4EC2
:101690008C36B442DAD190F85C60012406F01F0663
:1016A000B4406C60046863608368402B0368CFD1EA
:1016B000C9E700001000024088000240A00002407C
:1016C000B8000240100402400854025870B50446A5
:1016D0000020014604EB810202F58052491C1029CA
:1016E000C2F8BC00F6D300224FF40075A118521CBA
:1016F000AA4281F81C01F9D3012141F2FC024023E6
:1017000020706070A17010512176A371607684F80A
:101710001C0384F81D13090284F81F0384F81E03B8
:1017200004F11C00FFF7A0F904F58E702946FFF7BD
:101730009BF9122104F22630FFF774F904F54E707C
:1017400040F65251FFF790F9002070BD704772B615
:10175000FEE70000054805490839026842F0020228
:10176000026008688004FCD5704700000C480258ED
:10177000014801F083BD0000F4000024014801F09D
:101780007DBD0000F4000024F0B503684FF6FC7145
:101790006D4C426BD3F884508D4345EA8205C3F803
:1017A0008450036853F8845F068F25F47F0545EA6B
:1017B00006451D60836B654D9F180268D2F888301E
:1017C0008B4343EA8703C2F88830026852F8883FA7
:1017D000868F23F4FE0343EA06431360066856F837
:1017E000A03FC26B8B4307EB420243EA82033360A4
:1017F000076857F8A03FB0F8406023F4FE0343EABF
:1018000006433B60D0E9103603FB06220368D3F899
:10181000B0608E4346EA8206C3F8B0600368B0F851
:101820004860D3F8B07027F4FE0747EA0646C3F8CD
:10183000B060D0E91267036806FB0722D3F8AC60FA
:101840008E4346EA8206C3F8AC60D0E914670368A9
:1018500006FB0722D3F8F0608E4346EA8206C3F8FF
:10186000F0600368B0F85860D3F8F07027F47C1784
:1018700047EA0646C3F8F0600368876D53F8C06F07
:1018800002EB47028E4346EA820119600168B0F814
:101890005C20D1F8C03023F47C1343EA0242C1F843
:1018A000C020016890F86020D1F8C03023F07C534C
:1018B00043EA0262C1F8C020416B04EB8101C166BA
:1018C000826B01EB82020267C36B02EBC3024267C9
:1018D000D0E91034634302EB83028267D0E912340B
:1018E000634302EB8302C267D0E91434634302EB23
:1018F0008302C0F88020836D02EBC303C0F88430FC
:10190000C46D826E544303EB8403C0F88830046EC8
:10191000544303EB8402C0F89020AA420AD9D0F8BD
:101920009C20032142F02002C0F89C2080F89810EF
:101930000120F0BD002200E004C1D0F890308B42BD
:10194000FAD80020F0BD000000AC0040FCD30040FD
:10195000F0B58E680C69D1E9005744EA0604DFB19E
:1019600045F080452C43866ED1E906C54F695E433C
:1019700091F8203045EA0C05B1F80CC0D0F884E0AD
:10198000002047EA03630C4F1D430EEB860345EA34
:101990000C45E3E802450AE044EA8544E3E714180D
:1019A000155C001DD4F8014045EA042410C3CC683E
:1019B0003C5D8442F3D8F0BD18C8000800B589B07A
:1019C00020216846FFF750F801AB0020009002216B
:1019D000402283E80700049069460590044801F01E
:1019E00043FB20216846FFF73FF809B000BD000027
:1019F000F400002470B58AB014460D460646242132
:101A00006846FFF731F8082C00D90824002202921A
:101A1000082CCDE900621CD0072C1CD0062C1CD051
:101A2000052C1CD0042C1CD0032C1CD0022C1CD048
:101A3000012C1CD05FF000006946CDE903020D487F
:101A400005920692079208922A4601F0D9FA0AB046
:101A500070BD0820F0E70720EEE70620ECE7052040
:101A6000EAE70420E8E70320E6E70220E4E70120B4
:101A7000E2E70000F4000024234A30B514885480C3
:101A80000B885BBA13801C1BB4F5805F02DB956882
:101A90006D1E956014F5805F02DC9468641C946090
:101AA00000EE103A9FED191ADFED190AF8EE402A00
:101AB00092ED020A174B9FED182A82EE813AB8EE9A
:101AC000C00A03EB0012A2F51050A2F54052F0EE4E
:101AD000081A23EE201A00EE201A80EDEC1A4B882B
:101AE0005BBAA2F8B43F8B885BBA1BB200EE103A27
:101AF000B8EEC00A20EE020A20EE210A80EDEE0ABE
:101B0000887982F8BC0F30BDDC00002400F8FF4566
:101B10000000B443F0750024000080387CB500223A
:101B20006B460092CDF80420541C31F812502E0A56
:101B300003EB420503F8126011F81260E2B2042AC6
:101B40006E70F1D308221946FFF754FF7CBD0000E8
:101B5000224D46F2A81ADFF88090A5F5A07B05F586
:101B60002078002303EB830609EB031705EBC6047B
:101B700097ED000A204684ED040A05F09FFA94EDE3
:101B8000090A0BEBC60181ED030AB7F9040000EE68
:101B9000100A0846B8EEC00A81ED040A05F0D2FA30
:101BA00091ED090ABDEEC00A10EE101A48F8231094
:101BB000514502DD48F823A004E0094A914201DAC8
:101BC00048F823205B1C032BCCDB064940F2FF10B6
:101BD000FFF7A4FFC5E70000F0750024307800246B
:101BE000589EFFFFB07A002430B4A125057421244B
:101BF000447400220723C382428282821A4630BC88
:101C000006F0BCBB30B5094D002203464FF6FF700D
:101C100008E09C5C521C84EA102435F8144084EAE5
:101C2000400080B28A42F4D330BD0000ACC8000846
:101C30002DE9F84F044601F06DFF00903CB194F897
:101C40003500022806D0802161650020E4E00120F3
:101C5000BDE8F88FC74DC74EC649183520683036E5
:101C6000DFF81483DFF814938842DFF814A3DFF859
:101C700014B32ED0A8422CD0B0422AD0404528D050
:101C8000484526D0504524D0584522D0BD4A183268
:101C900090421ED0BC4A90421BD0BB4A18329042A0
:101CA00017D0B94A3032904213D0B74A48329042E6
:101CB0000FD0B54A603290420BD0B34A783290428E
:101CC00007D0B14A9032904203D0AF4AA832904236
:101CD00009D1026822F01E0202602068426922F0E7
:101CE0008002426103E0026822F00E02026027686F
:101CF0008F4238464DD0A8424BD0B04249D04045E3
:101D000047D0484545D0504543D0584541D09D4ADD
:101D1000183290423DD09C4A90423AD09A4A1832AA
:101D2000904236D0984A3032904232D0964A483269
:101D300090422ED0944A603290422AD0924A783211
:101D4000904226D0904A9032904222D08E4AA832B9
:101D500090421ED08D4A90421BD08C4A1432904241
:101D600017D08A4A2832904213D0884A3C32904297
:101D70000FD0864A503290420BD0844A643290424F
:101D800007D0824A7832904203D0804A8C32974200
:101D900004D1206E026822F48072026075492068C6
:101DA000884228D0A84226D0B04224D0404522D034
:101DB000484520D050451ED058451CD07149183197
:101DC000884218D07049884215D06F49183188422E
:101DD00011D06D49303188420DD06B49483188426D
:101DE00009D069496031884205D067497831884215
:101DF00001D065499031016821F0010101600EE0D8
:101E000001F088FE0099401A052808D92022626551
:101E10000321002084F8351084F8340017E738686F
:101E2000C007EDD1534A0121206890422ED0A8422C
:101E30002CD0B0422AD0404528D0484526D0504525
:101E400024D0584522D04F4B183398421ED04E4BC9
:101E500098421BD04C4B1833984217D04A4B303322
:101E6000984213D0484B483398420FD0464B6033CA
:101E700098420BD0444B7833984207D0424B903372
:101E8000984203D0404BA833984208D194F85C7034
:101E90003F23A06D07F01F07BB40836007E094F865
:101EA0005C30A06D03F01F0301FA03F34360206868
:101EB00090424DD0A8424BD0B04249D0404547D087
:101EC000484545D0504543D0584541D02D4A183259
:101ED00090423DD02C4A90423AD02B4A1832904240
:101EE00036D0294A3032904232D0274A4832904286
:101EF0002ED0254A603290422AD0234A783290422E
:101F000026D0214A9032904222D01F4AA8329042D5
:101F10001ED01E4A90421BD01C4A1432904217D049
:101F20001A4A2832904213D0184A3C3290420FD0BD
:101F3000164A503290420BD0144A6432904207D075
:101F4000124A7832904203D0104A8C3290420BD120
:101F5000D4E919024260E06E30B1026822F4807266
:101F60000260D4E91C024260002084F8351084F835
:101F700034006DE61000024058000240700002403C
:101F800088000240A0000240100402400854025899
:101F90002DE9F05F28B190F83510022904D0802196
:101FA00041650120BDE8F09F904C904B0168183CC2
:101FB00018338E4ADFF83C92A1428D4CDFF838E2AC
:101FC0008E4FDFF83CB2DFF83CA28F4D8F4E31D000
:101FD00091422FD099422DD0A1422BD0494529D0F2
:101FE000714527D0B94225D0DFF810C20CF1180C8A
:101FF00061451FD0DFF808C2ACF1600C614519D013
:10200000DFF8FCC1ACF1480C614513D0DFF8F0C13A
:10201000ACF1300C61450DD0DFF8E4C1ACF1180C27
:10202000614507D0594505D0514503D0A94201D09B
:10203000B1422CD1DFF8B4C14FF0040880F83580EC
:10204000ACF1180C61451DD091421BD0994219D0BA
:10205000A14217D0494515D0714513D0B94211D0CE
:102060006648183081420DD065486038814209D0F9
:1020700063484838814205D061483038814201D0F8
:102080005F481838086820F001000860ABE0D1F81C
:1020900000C02CF00E08DFF854C1C1F80080ACF18C
:1020A000180C0168614527D0914225D0994223D070
:1020B000A14221D049451FD071451DD0B9421BD046
:1020C000DFF838C10CF1180C614515D0DFF830C1CC
:1020D000ACF1600C61450FD0DFF824C1ACF1480CC5
:1020E000614509D0DFF818C1ACF1300C614503D06F
:1020F000DFF80CC1ACF1180CD1F800C02CF0010CC9
:10210000C1F800C0DFF8E4804FF0010C0168A8F1CD
:102110001808414546D0914244D0994242D0A1424C
:1021200040D049453ED071453CD0B9423AD0334ABF
:102130001832914236D0324A603A914232D0304A17
:10214000483A91422ED02E4A303A91422AD02C4A17
:10215000183A914226D0594524D0514522D0A9425F
:1021600020D0B1421ED02A4A91421BD0284A1432B4
:10217000914217D0264A2832914213D0244A3C3249
:1021800091420FD0224A503291420BD0204A643201
:10219000914207D01E4A7832914203D01C4A8C32B9
:1021A000914218D1016E0A6822F480720A6090F898
:1021B0005C20816D02F01F020CFA02F24A60D0E945
:1021C00019124A60C16E31B10A6822F480720A6045
:1021D000D0E91C124A600022016D80F835C080F8F9
:1021E000342001B188470020DCE6000028000240CE
:1021F000580002407000024088000240A0000240E7
:102200007004024088040240A0040240B804024066
:10221000085402582DE9FC5F0446F74E0020DFF811
:10222000D88300904FF41652F44808F11808A56DB1
:10223000DFF8C493DFF8C0A3016809F13009206812
:102240000AF1480AB1FBF2F1B04201912F68D5F8CA
:1022500000C0DFF8ACB335D04146884232D04845A3
:1022600030D050452ED058452CD0E5491831884201
:1022700028D0E3493031884224D0E14948318842AE
:1022800020D0E04988421DD0DE491831884219D05B
:10229000DC493031884215D0DA494831884211D0C2
:1022A000DFF860E30EF1600E70450BD0D54A78324E
:1022B000904207D0D34B9033984203D0D149A831F4
:1022C00088427DD194F85C20082102F01F0201FAB7
:1022D00002F23A424AD0B04232D0404530D048456E
:1022E0002ED050452CD058452AD0C54A183290429D
:1022F00026D0C34A3032904222D0C14A483290425E
:102300001ED0C04A90421BD0BE4A1832904217D00D
:10231000BC4A3032904213D0BA4A483290420FD071
:10232000B84A603290420BD0B64A7832904207D019
:10233000B44A9032904203D0B24AA832904203D1BC
:10234000026802F0040202E0026802F008026AB1C8
:10235000026822F00402026094F85C0000F01F00A2
:102360008140A960606D40F00100606594F85C00F8
:10237000012100F01F008140394240D02068B04266
:1023800034D0404532D0484530D050452ED0584505
:102390002CD09B4A1832904228D0994A3032904231
:1023A00024D0974A4832904220D0964A90421DD07D
:1023B000944A1832904219D0924A3032904200E04A
:1023C000AFE113D08F4A483290420FD08D4A60322D
:1023D00090420BD08B4A7832904207D0894A903293
:1023E000904203D0874AA83290427DD1406910F0D4
:1023F000800F04D0A960606D40F00200606594F821
:102400005C00042100F01F00814039423ED020686A
:10241000B04232D0404530D048452ED050452CD027
:1024200058452AD0764A1832904226D0744A303223
:10243000904222D0724A483290421ED0714A904255
:102440001BD0704A1832904217D06E4A30329042F8
:1024500013D06C4A483290420FD06A4A60329042A0
:102460000BD0684A7832904207D0664A9032904248
:1024700003D0644AA83290424ED1006810F0020F97
:1024800004D0A960606D40F00400606594F85C00C1
:10249000102100F01F008140394258D02068B0421E
:1024A00034D0404532D0484530D050452ED05845E4
:1024B0002CD0534A1832904228D0514A30329042A0
:1024C00024D04F4A4832904220D04E4A90421DD0EC
:1024D0004C4A1832904219D04A4A3032904215D0B4
:1024E000484A4832904200E014E00FD0454A60323A
:1024F00090420BD0434A7832904207D0414A903202
:10250000904203D03F4AA832904207D1006800F0C1
:10251000080006E0006872E70068B7E7006800F0AE
:102520000400A0B1A96020680168490304D50068CF
:10253000000308D5A16C07E00168C90503D4016850
:1025400021F008010160216C09B12046884794F808
:102550005C00202100F01F008140394279D02068C2
:10256000B04232D0404530D048452ED050452CD0D6
:1025700058452AD0224A1832904226D0204A30327A
:10258000904222D01E4A483290421ED01D4A9042AC
:102590001BD01C4A1832904217D01A4A303290424F
:1025A00013D0184A483290420FD0164A60329042F7
:1025B0000BD0144A7832904207D0124A903290429F
:1025C00003D0104AA832904203D1006800F01000F6
:1025D00002E0006800F00200B0B3A96094F8350092
:1025E0000428206801680FD049037ED500680003E5
:1025F0002BD4616C2AE0000010000240240000246B
:10260000700002401004024021F0160101602068B1
:10261000416921F080014161206C08B9A06C20B1B2
:102620002068016821F00801016094F85C303F21C6
:10263000012003F01F0300229940A96084F83500AF
:1026400084F83420216D65E003E0E16B09B1204698
:102650008847606D00287DD0606DC00759D0206824
:10266000042184F83510B0422BD0404529D048458C
:1026700027D0504525D0584523D09D49884220D0A9
:102680009B49183188421CD099493031884218D072
:102690009849884215D097491831884211D09549F8
:1026A000303188420DD093494831884209D0914950
:1026B0006031884205D08F497831884201D08D49F8
:1026C0009031016821F00101016020680099019AB0
:1026D000491C0091914202D80168C907F6D10068EF
:1026E000C00710D003200FE0FFE70168C905ACD494
:1026F00003680121002223F01003036084F83510E1
:1027000084F83420A1E7012084F83500002084F803
:102710003400E16C00291DD002B02046BDE8F05F16
:102720000847754988421DD073491431884219D031
:1027300071492831884215D06F493C31884211D007
:102740006D49503188420DD06B496431884209D0BF
:10275000694900E084E07831884203D066498C31D1
:1027600088427DD194F85C800427016808F01F0836
:1027700007FA08F717EA0C0F009746D04F0744D521
:1027800000980F04686003D5C8033CD4A16CC1E76E
:10279000880638D42068B0422DD055496039884227
:1027A00029D0484527D0504525D0584523D05049F9
:1027B000884220D04E49183188421CD04C493031D3
:1027C000884218D04B49884215D04A49183188426E
:1027D00011D04849303188420DD0464948318842AD
:1027E00009D0704507D0904205D0984203D04149A6
:1027F000A831884203D1016821F0080102E0016894
:1028000021F004010160216C84E7022707FA08F730
:1028100017EA0C0F00974ED08F074CD500980F0485
:10282000686003D5C80344D4616C73E7880640D45C
:102830002068B0422FD02E49603988422BD04845BD
:1028400029D0504527D0584525D02949884222D043
:102850002749183188421ED025493031884200E08E
:1028600044E018D02349884215D0224918318842C3
:1028700011D02049303188420DD01E49483188425C
:1028800009D0704507D0904205D0984203D019492D
:10289000A831884203D1016821F0140102E00168E7
:1028A00021F00A010160012184F83510002084F82C
:1028B0003400E16B2EE7082202FA08F212EA0C0F4C
:1028C00014D0090712D5016821F00E01016094F8B7
:1028D0005C100120002201F01F0100FA01F1696083
:1028E000606584F8350084F8342012E7BDE8FC9F69
:1028F0008800024010040240085402582DE9F05F9D
:10290000044601F007F9002C07467DD0E24E022173
:1029100020684FF00308DFF884934FF00005DFF8DC
:1029200080A3B042DFF87CB334D0DB4A1832904247
:1029300030D048452ED050452CD058452AD0D94AC1
:102940001832904226D0D74A3032904222D0D54A0F
:10295000483290421ED0D44A90421BD0D24A1832FC
:10296000904217D0D04A3032904213D0CE4A4832EB
:1029700090420FD0CC4A603290420BD0CA4A783293
:10298000904207D0C84A9032904203D0C64AA8323B
:1029900090427DD184F83510B04284F834502ED066
:1029A000BD49183188422AD0484528D0504526D004
:1029B000584524D0BB491831884220D0B94930311C
:1029C00088421CD0B7494831884218D0B64988425D
:1029D00015D0B5491831884211D0B34930318842F9
:1029E0000DD0B1494831884209D0AF4960318842A1
:1029F00005D0AD497831884201D0AB4990310168AA
:102A000021F00101016008E025E100BF01F082F83A
:102A1000C01B052801D920211AE120680068C007E1
:102A2000F4D1D4E902032168103418438E4694E8A7
:102A30008410D4E9033809683A4310439B4A40EABA
:102A40000C00676918431140103C40EA0800042F4D
:102A500040EA010003D1D4E90B1211430843616835
:102A6000A1F12902052A0BD9163A032A08D9083AF6
:102A7000012A05D9083A032A02D97439032901D851
:102A800040F48010CEF800002068676A406900E0DA
:102A900020E0042F20F0070047EA00070DD1D4E919
:102AA0000A01074349B12046FEF7D6FC28B1402071
:102AB0006065012184F83510CDE02068476120462B
:102AC000FEF7E8FB94F85C203F2102F01F029140E2
:102AD000816055E0764A90421BD0754B1433984282
:102AE00017D0734B2833984213D0714B3C33984224
:102AF0000FD06F4B503398420BD06D4B64339842DC
:102B000007D06B4B7833984203D0694B8C33984293
:102B10007ED184F8351084F83450664B0168A26881
:102B200001EA030E402A74D0802A73D05FF00002BD
:102B3000D4E90378D4E9053142EAD70242EAD80859
:102B40005B4AD4E9077C48EAD30848EAD10141EA64
:102B5000D701524241EA1C11142341EA0E010160DF
:102B600020681044B0FBF3F08000E0652046FEF7DB
:102B700091FB94F85C20012102F01F02914041601A
:102B80002068B04257D044491831884253D0484554
:102B900051D050454FD058454DD042491831884208
:102BA00049D040493031884245D03E494831884279
:102BB00041D03D4988423ED03B49183188423AD005
:102BC00039493031884236D037494831884232D08D
:102BD0003549603188422ED03349783188422AD035
:102BE00031499031884226D02F49A831884222D0DD
:102BF0002F4988421FD02E49143188421BD02C49BE
:102C00002831884217D02A493C31884213D002E04B
:102C10001DE017E018E02649503188420BD02449C6
:102C20006431884207D022497831884203D0204954
:102C30008C31884229D12046FEF786FBA068802887
:102C40000CD00CE0102273E74FF4804270E7402173
:102C5000616584F835800120BDE8F09F6560216ED4
:102C600020790860D4E9190141606068401E072896
:102C700008D82046FEF7B6FBE06E0560D4E91C01DB
:102C8000416002E0E566256765670120656584F8B7
:102C900035000020E0E70000100002404000024044
:102CA0005800024070000240100402403F8010FEB5
:102CB000085402580F00FEFF2DE9F84F04008C461F
:102CC0004FF00000009014D094F83400012812D086
:102CD00094F835500120002184F83400012D0CD0E7
:102CE000C00260650120009084F834100098BDE8AF
:102CF000F88F0120FBE70220F9E78C4D02262068BF
:102D000084F83560A8428A4D61658A4E8A4FDFF8A3
:102D10002C82DFF82C92DFF82CA2DFF82CB226D020
:102D2000A84224D0B04222D0B84220D040451ED084
:102D300048451CD050451AD0584518D08349884280
:102D400015D082491831884211D0804930318842EB
:102D50000DD07E494831884209D07C496031884293
:102D600005D07A497831884201D07849903101689C
:102D700021F00101016061462046FEF797FB6B4997
:102D8000206888422CD0A8422AD0B04228D0B8422D
:102D900026D0404524D0484522D0504520D0584523
:102DA0001ED06A4A90421BD0684A1832904217D00F
:102DB000664A3032904213D0644A483290420FD073
:102DC000624A603290420BD0604A7832904207D01B
:102DD0005E4A9032904203D05C4AA83290420CD1B5
:102DE000026822F01E0242F016020260206C88B1D6
:102DF0002068026842F008020BE0026822F00E022E
:102E000042F00A020260206C20B12068026842F0A1
:102E100004020260206888424BD0A84249D0B042E8
:102E200047D0B84245D0404543D0484541D05045B1
:102E30003FD058453DD0454A90423AD0434A183297
:102E4000904236D0414A3032904232D03F4A4832E6
:102E500090422ED03D4A603290422AD03B4A78328E
:102E6000904226D0394A9032904222D0374AA83236
:102E700090421ED0364A90421BD0354A14329042BE
:102E800017D0334A2832904213D0314A3C32904214
:102E90000FD02F4A503290420BD02D4A64329042CC
:102EA00007D02B4A7832904203D0294A8C32904284
:102EB0000DD1206E0268D20303D5026842F48072FD
:102EC0000260E06E18B1026842F48072026020680D
:102ED000884226D0A84224D0B04222D0B84220D086
:102EE00040451ED048451CD050451AD0584518D0F2
:102EF0001649884215D015491831884211D0134916
:102F0000303188420DD011494831884209D00F49EB
:102F10006031884205D00D497831884201D00B4993
:102F20009031016841F001010160DFE610000240CC
:102F30002800024040000240580002407000024059
:102F400088000240A0000240B80002401004024085
:102F50000854025870B5044600F0DCFD0546601CBC
:102F600002D004480078044400F0D4FD401BA04285
:102F7000FAD370BD1800002410B590F89830012BDA
:102F800009D0022B07D0D0F89C1041F00201C0F804
:102F90009C10012010BD03689C6D0C4203D1DC6DB8
:102FA00044F0010404E09C6D31EA04041FD00324C2
:102FB000DC658B0505D50368D3F8E0401443C3F8FE
:102FC000E0404B0505D50368D3F8E4401443C3F84B
:102FD000E4400068084A01EA0203446D074A1C43C2
:102FE0004465106840EA91701060002010BDDC6DEF
:102FF00044F00204DCE70000FFFFCF3F14A80040CC
:1030000070B5044690F89800022804D0D4F89C00CB
:1030100040F008000DE02068D0F8C03013F07C5F6D
:103020000BD0D0F8C4309B020CD5D4F89C0040F4EF
:103030000070C4F89C00012070BDD4F89C0040F0E2
:103040002000F6E7D0F8C400C0F3044520462B4624
:10305000FEF77EFC21680120A840C1F8D000C4F82A
:103060009400002070BD704770B590F89820012A38
:1030700009D0022A07D0D0F89C1041F00201C0F814
:103080009C10012070BD0B68CA6883B10B69072AC8
:1030900043EA427325D00C7A4A6942EA847249684D
:1030A000006F00EBC100C0E90032002070BD072AAC
:1030B0000DD00C7AD6060D8A4B6943EA847246EA33
:1030C0000543C06E49681A4340F82120EDE70B8A9A
:1030D0004FF06055D1E9062442EA034245EA042351
:1030E000EFE78A69DBE7704770470000F0B590F8BA
:1030F00098500024022D04D0D0F89C1041F0080113
:1031000029E0402905D0412929D0056D8D4219D9E2
:1031100042E00568D5F8A06016F4FE0F12D0D5F88D
:10312000A460760613D0D5F8A460F60105D5D5F8CD
:10313000A06016F0004F00D50124D5F8A470466FAA
:10314000456C24E0D0F89C1041F0200103E0D0F859
:103150009C1041F48071C0F89C100120F0BD0568FE
:10316000D5F8B06016F4FE0FECD0D5F8B460760652
:10317000EDD0D5F8B460F60105D5D5F8B06016F0FD
:10318000004F00D50124D5F8B470866FC56CC7F325
:1031900005273C44654302E0456DC66F4D4306EB91
:1031A00085052E6816F0804656602E6836D026F0CB
:1031B00060461660D5F800C000262E4F0CF0005C6B
:1031C000C2F808C0D5F800C00CF0004CC2F810C01E
:1031D000B5F804C01FFA8CFCC2F81CC0D5F804C0B6
:1031E000CCF3034CC2F80CC0D5F804C00CF4801C1E
:1031F000C2F814C0D5F804C00CF4001CC2F818C002
:10320000D5F804C0CCF3066CC2F820C0D5F804C0D1
:1032100008354FEADC7CC2F824C008E0C6F38A46D1
:10322000C7E700BF15F806C003F806C0761CD2F841
:103230000CC017F80CC0B445F4D840290AD0412975
:103240000CD020294FF001020CD200688A40C0F84F
:1032500098200DE00068C0F8A84009E00068C0F8B8
:10326000B84005E0006801F01F018A40C0F89C20CA
:103270000020F0BD18C80008704700002DE9FF5F6E
:10328000DFF80CB304460BF10401DBF800002568FD
:103290000F68AA468007D5F85090696DD5F8508020
:1032A0006E6D2A6DD5F854C02B6D00EA87700090C2
:1032B00009F470496F6D286D01EA09010191DAF88E
:1032C0005410DAF85490DAF8505008F00F0806EA73
:1032D0000806029602F0F00203F071536FEA090645
:1032E0001F4000F060700CEA020CCDF80CC0F20533
:1032F00001EA00090CD4E843C00509D400214FF4C9
:103300008073CAF85030CBF800102046FFF7B4FFA6
:10331000700512D4E84340050FD4206800234FF411
:103320008068D0F8DC20D0F8E410C0F85080CBF8EA
:1033300000301140204600F0DBFADFF858A2009878
:1033400050B12268830F00EA0A001065CBF8003004
:1033500020460099FFF787FE019850B12268830F3D
:1033600000EA0A001065CBF800302046019900F011
:10337000C1FA029850B12268830F00EA0A00106572
:10338000CBF800302046029900F082FA039850B141
:103390002268830F00EA0A001065CBF8003020464F
:1033A000039900F085FA30050CD4E843000509D4F0
:1033B000236800204FF400621A65CBF80000204615
:1033C00000F099FAB00512D4E84380050FD42068C4
:1033D00000234FF40078D0F8D820D0F8E010C0F8DF
:1033E0005080CBF800301140204600F082FA3003C4
:1033F0000CD4E843000309D4236800204FF40022D2
:103400001A65CBF80000204600F040FAF0030CD417
:10341000E843C00309D4236800204FF480321A65C2
:10342000CBF80000204600F062FA70030CD4E843A9
:10343000400309D4226800204FF480231365CBF8A1
:103440000000204600F052FAB0030FD4E843800396
:103450000CD4236800204FF400321A65CBF800002A
:10346000D4F89C0040F08000C4F89C00B9F1000F33
:103470000BD022684FEA997309EA0A001065CBF86D
:10348000003049462046FFF72FFE5FB12268BB0F90
:1034900007EA0A001065CBF80030D4F89C003843E6
:1034A000C4F89C003C492068884268D16068814625
:1034B0008068800763D0D9F82060D9F82410D9F843
:1034C0002080D9F82400D9F820C0D9F82470D9F880
:1034D0002030D9F82450D9F8202003F4FC4306F01A
:1034E0000F0AD9F824601D40D9F824B008F030083C
:1034F0000CF4C07C02F4F02211EA0A0100EA080888
:1035000007EA0C0706EA0206D9F820A004D0C9F899
:103510002010204600F0E7F9B8F1000005D06168FE
:1035200008624146204600F0E0F96FEA0B004006D1
:103530000ED46FEA0A0040060AD460684021C36BCB
:10354000C26B01622046190C02F03F0200F0CCF978
:103550002FB1606807623946204600F0C3F935B1E3
:1035600060680562D4F89C002843C4F89C0036B11A
:1035700060680662D4F89C003043C4F89C00D4F81C
:103580009C00002802D02046FFF7ADFDBDE8FF9F5C
:1035900010A80040FFFFCF3F00A000402DE9F04100
:1035A00094B08D494C2204466846FDF701FA64B197
:1035B0008A4D2068A84202D100F58070606094F8BE
:1035C00098004FF0000820B108E0012014B0BDE8D9
:1035D000F081204684F8998000F002F92068816922
:1035E00021F01001816100F095FA0327064604E0FE
:1035F00000F090FA801B0A2811D820688069000723
:10360000F6D42068816941F00101816100F082FAFD
:1036100006460DE000F07EFA801B0A2808D9D4F88F
:103620009C0040F00100C4F89C0084F89870CCE73E
:1036300020688069C007EDD02068816941F00201EF
:103640008161207C01282068816937D041F04001E8
:103650008161607C01282068816932D021F4804139
:103660008161A07C0128206881692DD041F48051BE
:1036700081612068A268816921F4407111438161F0
:103680002068816921F0A40181612068016921F02D
:1036900010010161E068012819D010B302281BD085
:1036A0002068816941F0800181612068016941F0F1
:1036B00010010161E06803280ED012E021F0400102
:1036C000C6E741F48041CBE721F48051D0E7206880
:1036D000816941F0040103E02068816941F0200123
:1036E0008161207E6FF0FF02D4E90773A68A110280
:1036F000400602EB0727A0F10070384327685B1EE5
:10370000184301EB06463043F861A068B0F5407FEE
:1037100011D104F12800A68C6FF00F0C89C801EBC1
:103720000641401E02EB0322104322680CEB0713F4
:1037300018430843D060206E30B12068626ED0F824
:10374000C0101143C0F8C010D4E917126846D14226
:1037500009D02168A36E51F8C82F50F8233022F009
:1037600007021A430A60216C49B12168626C51F862
:10377000BC3F50F8226023F0070232430A60A16C7C
:1037800051B12168E36C51F8BC2F50F8233022F07E
:10379000700242EA03120A60216D51B12168626D24
:1037A00051F8BC3F50F8220023F4E06242EA0020C6
:1037B00008602068A84204D16068816821F0030194
:1037C0008160C4F894800121C4F89C8084F898102A
:1037D0002046FDF7D9FFF9E628C8000800A0004000
:1037E00010B5B4B0044614212EA8FDF73DF9B82158
:1037F0006846FDF739F92249206888423DD100200A
:103800004FF40041CDE900104A0368461B9200F0D6
:1038100011FE08B1FDF79BFF1A48016841F4807161
:103820000160006800F48070339016480C3801681D
:1038300041F00201016000680923022200F0020049
:10384000339000204FF440712E912EA9CDE92F2006
:10385000CDE931030C4800F04FF800220521132078
:1038600000F02EFC132000F01DFC00220521152085
:1038700000F026FC152000F015FC34B010BD00004F
:1038800000A00040EC4402580004025870470000B9
:10389000054B4021054A10B5FFF728FC02490120DD
:1038A000491E087010BD0000D2000024C875002415
:1038B000704790F89810012907D0D0F89C1041F07B
:1038C0000401C0F89C1001207047022180F8981074
:1038D000002201688B6923F001038B61C0F89C20F2
:1038E0001046704770477047704770477047704781
:1038F00070477047704770472DE9F84F03247A4DA1
:1039000000234FF001094FF0B04B4FF00F0AE4E0F5
:1039100009FA03F6324078D00F7907F00307012F38
:1039200001D0022F1AD187684FEA430ED1F80CC09C
:1039300004FA0EF827EA08070CFA0EFC4CEA070C0A
:10394000C0F808C0476891F804C0B743CCF3001C26
:103950000CFA03FC4CEA070CC0F804C00E79F643DD
:10396000B6070BD0C6684FEA43088F6804FA08FC14
:1039700026EA0C0607FA08F73743C7600E7906F007
:103980000306022E12D1DE080F694FEA437C00EBDA
:103990008606B646366A4FEADC6C0AFA0CF807FA75
:1039A0000CF726EA08063743CEF820700F79066830
:1039B0004FEA430807F0030704FA08FC07FA08F780
:1039C00026EA0C06374307604E6816F4403F1CD0C9
:1039D000464E376847F00207376036689F0706F0A3
:1039E0000206009623F0030606F1B046B6463F0FE6
:1039F000D6F80864DFF8F8800AFA07FC404526EAA2
:103A00000C0603D14FF0000C3AE065E0DFF8E4C0AB
:103A1000604502D14FF0010C32E0DFF8DCC06045B8
:103A200002D14FF0020C2BE0DFF8D0C0604502D18C
:103A30004FF0030C24E0DFF8C8C0604502D14FF01E
:103A4000040C1DE0DFF8BCC0604502D14FF0050C4E
:103A500016E0DFF8B4C0604502D14FF0060C0FE06D
:103A6000DFF8A8C0604502D14FF0070C08E0DFF88E
:103A7000A0C0604502D14FF0090C01E04FF00A0CE4
:103A80000CFA07FC4CEA060CCEF808C44F68DBF8C9
:103A90000060FF0226EA020600D516435F46CBF817
:103AA0000060D1F804C0DBF804605FEA8C2C26EAE1
:103AB000020600D516437E606E684F6826EA02064D
:103AC000BF0300D516436E602E684F6826EA0206D3
:103AD000FF0300D516432E605B1C0A6832FA03F61A
:103AE0007FF416AFBDE8F88F80000058F444025808
:103AF000000002580004025800080258000C025846
:103B0000001002580014025800180258001C0258F5
:103B10000024025801488068704700001800002403
:103B2000D0F8DC0304F01BBFD0F8DC0304F027BF9F
:103B3000006805F0FBBB006805F0FCBBC1EB01129F
:103B4000002100EB82008176C17680F8251080F894
:103B5000241008467047C1EB011100EB810090F87A
:103B60004C007047C1EB011100EB8100806B704786
:103B700010B5044690F8D403012809D0012084F838
:103B8000D403206805F0E1FB002084F8D40310BDC5
:103B9000022010BD2DE9FF4F83B0054690F8D403F5
:103BA00092468B46DDE91176DDF8408001281CD075
:103BB000CBEB0B104FF00009012385F8D43305EB54
:103BC00080040AF07F0084F81990069921755946FF
:103BD00084F815B084F82670A0752846FFF7AEFF6C
:103BE0005FEA0A6005D5E37505E0022007B0BDE88D
:103BF000F08F84F81790286805F09CFB012F06D100
:103C0000B8F1010F03D110B9BC2E00D9BC2684F83D
:103C10001880B0B22085CDF8008052465946CDE9D3
:103C200001702868069B05F0FBFB85F8D493DDE75F
:103C3000D0F8DC0304F024BF2DE9F003C1EB01143C
:103C40004FF0020600EB8404DDE90875DDE906C9E2
:103C5000E275BCF1000F84F826300BD084F82A609E
:103C60004FF0000563B1012B32D0022B29D0032B7A
:103C700016D126E065764FF0030884F82A80EFE736
:103C8000BCF1010F0CD11AB1A27E012A1AD007E0B3
:103C9000DFB9012284F83D2000E0CAB184F82A602F
:103CA000C4F82C90676384F84C50A563617504F1E7
:103CB000140184F84D5082790068BDE8F00305F0E6
:103CC0003BBC12B194F83C20E7E794F83D20E4E7D0
:103CD00084F82A50E4E700002DE9F0410668044624
:103CE000304605F02EFB012877D1206805F0C9FD8C
:103CF000002872D0206805F0C4FD800203D5216839
:103D00004FF400104861206805F0BBFDC00203D5E8
:103D100021684FF480104861206805F0B2FD400131
:103D200003D521684FF080604861206805F0A9FD47
:103D3000800702D5216802204861206805F0A1FDB6
:103D4000800018D521684FF000504861D6F8400433
:103D5000C00710D11021304605F0CAFA304605F0F0
:103D6000ABFA607A022803D12068012105F064FDD6
:103D70002046FFF7D9FE206805F083FDC00102D57B
:103D8000204602F09BFE206805F07BFD000705D56C
:103D9000204600F0D0F8216808204861206805F02E
:103DA00070FD800124D5206805F0C2FB0025074680
:103DB0004FF0010815E000BF05F00F0108FA01F00F
:103DC00038420DD006EB4510D0F80005E9B20004EA
:103DD000204603D502F01AFB02E01CE002F0E9FCE9
:103DE0006D1C6079A842E7D821684FF000704861E7
:103DF000206805F046FDC043C0060CD420688169E8
:103E000021F010018161204602F0A2FE2068816944
:103E100041F010018161BDE8F08138B5040003D0A4
:103E200094F8D50310B107E0012038BD002084F8D4
:103E3000D403204600F024F8032084F8D50320683A
:103E400005F006FA207C8DF8000094E80F0005F0DC
:103E500095F9022560B92068012105F04FFD38B9B8
:103E6000207C8DF8000094E80F0005F08DFC10B167
:103E700084F8D553D8E7012084F8D503002038BD55
:103E800010B5B4B0044614212EA8FCF7EDFDB821FE
:103E90006846FCF7E9FD1F492068884238D10020B8
:103EA0004FF480214FF440122192CDE90010684672
:103EB00000F0C0FA08B1FDF74AFC00F05DF91648C1
:103EC000016841F00101016000680A23022200F04C
:103ED0000100339000204FF480712E912EA9CDE97E
:103EE0002F20CDE931030D48FFF706FD0A480838B9
:103EF000016841F00071016000680022052100F0B6
:103F0000007033904D2000F0DBF84D2000F0CAF82F
:103F100034B010BD00000440E044025800000258D4
:103F2000D0F8DC0304F0C4BDD0F8DC0304F0C7BD56
:103F3000006805F0CABCD0F8DC0304F062BD10B51F
:103F4000044690F8D40301280DD0012084F8D4034E
:103F50002068012105F094F9206805F0A7F90020F8
:103F600084F8D40310BD022010BD10B5044690F8AB
:103F7000D403012809D0012084F8D403206805F077
:103F8000EDFC002084F8D40310BD022010BD000019
:103F9000024881680278114481607047180000244B
:103FA000032010B500F0ACF801F084F80F4A104976
:103FB00014681368C4F3032203F00F038A5CC95C1E
:103FC00002F01F0201F01F01D0400A4A20FA01F15D
:103FD0001160094908600F2000F010F808B10120B5
:103FE00010BD00F04DF8002010BD0000184402582C
:103FF0009CC80008280000242400002410B51028C4
:1040000004468AB02AD200220146192000F058F84E
:10401000192000F047F8154804601548016841F080
:1040200001010160006808A900F0010009906846DC
:1040300000F0CCFF01F02CF80E49400000220E4C9D
:10404000B0FBF1F10D4840F2E7330460C0E9033200
:10405000491EC0E9011201F0BBFB10B101200AB0FA
:1040600010BD064801F002FCF9E700001C00002426
:10407000F044025840420F0000000140E8040024D0
:10408000074882B0016841F0020101600068002227
:104090000F2100F002000090901E02B000F010B856
:1040A000F4440258002809DB410900F01F0289008E
:1040B000012001F1E0219040C1F8000170470000AB
:1040C0000E4BF0B41B680D46C3F30223C3F1070681
:1040D000042E00D90426191D072901D2002300E06F
:1040E000DB1E012404FA06F19C40491E2940641E8F
:1040F000994014402143F0BC05F0A5BC0CED00E054
:10410000064900F0070210B54FF6FF040868044B9B
:10411000204040EA02201843086010BD0CED00E08A
:104120000000FA05134970B50A68D243520705D555
:10413000096801F00701814213D118E00A6822F0F2
:10414000070202430A60FFF7E5FC0A4D4FF47A7656
:104150000446083D07E000BFFFF7DCFC001BB0424F
:1041600001D9012070BD2868C0438004F4D4002028
:1041700070BD00000C4802580248016841F080718F
:10418000016070470C48025810B500F04DFF05491A
:104190000968054AC1F30211515C01F01F01C840D2
:1041A00010BD0000204402589CC80008494930B5A1
:1041B000484C0B1D0A68143409681D68246802F015
:1041C0000303C5F30012C1F30531C4F3CC04002985
:1041D00014FB02F200EE102AF8EE400A75D03F4AB6
:1041E0009FED3D1AB7EE000A6BB1DFED3D1A012BD2
:1041F00001D0022B64D002EE101A1168F8EE422AA8
:1042000081EEA22A21E0334C283C23689B0612D57C
:10421000344B246801EE901A1168C4F3C104F8EE1F
:10422000612AE34001EE903AC1F30801F8EE611A09
:1042300081EEA22A0BE001EE901ADFED2B2A00BFDF
:10424000F8EE611A116882EEA12AC1F3080101EEAD
:10425000901A1168F8EE611A40EE811A71EE800A28
:1042600062EE200AC1F3462101EE101AB8EE411A9F
:1042700031EE001AC0EE811ABCEEE11A80ED001A90
:104280001168C1F3064101EE101AB8EE411A31EE81
:10429000001AC0EE811ABCEEE11A80ED011A116815
:1042A000C1F3066101EE101AB8EE411A31EE000AB0
:1042B00080EE801ABCEEC10A80ED020A30BD04E037
:1042C00001EE901ADFED092ABAE700210160416092
:1042D0008160F3E72844025800000039384402584E
:1042E0000024744A0090D0030024744C20BCBE4BC0
:1042F000494930B5484C0B1D0A681C3409681D68D3
:10430000246802F00303C5F30022C1F30551C4F38E
:10431000CC04002914FB02F200EE102AF8EE400A49
:1043200075D03F4A9FED3D1AB7EE000A6BB1DFED45
:104330003D1A012B01D0022B64D002EE101A116835
:10434000F8EE422A81EEA22A21E0334C283C236871
:104350009B0612D5344B246801EE901A1168C4F301
:10436000C104F8EE612AE34001EE903AC1F308017E
:10437000F8EE611A81EEA22A0BE001EE901ADFED51
:104380002B2A00BFF8EE611A116882EEA12AC1F350
:10439000080101EE901A1168F8EE611A40EE811AD8
:1043A00071EE800A62EE200AC1F3462101EE101A76
:1043B000B8EE411A31EE001AC0EE811ABCEEE11AD5
:1043C00080ED001A1168C1F3064101EE101AB8EE33
:1043D000411A31EE001AC0EE811ABCEEE11A80EDEE
:1043E000011A1168C1F3066101EE101AB8EE411A04
:1043F00031EE000A80EE801ABCEEC10A80ED020A9E
:1044000030BD04E001EE901ADFED092ABAE7002181
:10441000016041608160F3E72844025800000039E0
:10442000404402580024744A0090D0030024744C85
:1044300020BCBE4B2DE9FE4F0546DFF800A450F826
:10444000081B0024FD4FC943019005F128002646B2
:104450000AF1240A009008011DD4686E50B1B0F52D
:10446000801F0CD0B0F5001F0ED0B0F5401F1ED03D
:1044700001240FE0386840F40030386017E00198FC
:10448000022102F083FE03E00098022102F00EFFF9
:1044900004000CD026462888C043C00523D4A86D4C
:1044A00005281ED2DFE800F00C11161B1B006A6EF7
:1044B000DAF8001021F440111143CAF80010EAE7BD
:1044C000386840F40030386009E00198002102F0BB
:1044D0005DFE03E00098002102F0E8FE0446C4B14E
:1044E00000E0012426462888DFF85083C04308F105
:1044F0002C0840052FD4D5F8A400B0F5C00F28D063
:1045000010DCB8B1B0F5001F19D0B0F5800F0FD195
:104510001AE0AA6DDAF8001021F007011143CAF879
:104520000010E0E7B0F5000F13D0B0F5200F10D069
:1045300001240FE0386840F40030386009E0019849
:10454000002102F023FE03E00098002102F0AEFEFD
:10455000044694B126462888C043000530D4D5F8D7
:10456000A800B0F1407F29D011DCC0B1B0F1807F4C
:104570001AD0B0F1007F10D11BE0D5F8A420D8F8F4
:10458000001021F460011143C8F80010E3E7B0F116
:10459000806F13D0B0F1A06F10D001240FE0386805
:1045A00040F40030386009E00198002102F0EEFD8F
:1045B00003E00098002102F079FE044694B12646FB
:1045C0002868DFF878B2C0430BF1200B80011FD4BC
:1045D000E86CD8B110280FD0202812D0302815D080
:1045E000012414E0D5F8A820D8F8001021F0E061EB
:1045F0001143C8F80010E3E7386840F40030386031
:1046000004E00198022102F0C1FD044674B126467F
:104610002888C043C0042BD4E86DB0F5005F20D0DB
:104620000DDCA0B1B0F5805F0FD115E0EA6CDBF8CE
:10463000001021F030011143CBF80010E8E7B0F58D
:10464000405F13D0B0F5804F10D001240FE03868E0
:1046500040F40030386009E00198002102F096FD36
:1046600003E00098002102F021FE04468CB12646AA
:104670002888C043800429D4286EB0F5403F23D059
:1046800010DC08B3B0F5803F14D0B0F5003F0FD177
:1046900015E0EA6DDAF8001021F4E0411143CAF8A0
:1046A0000010E5E7B0F5802F0ED0B0F5A02F0BD0AD
:1046B00001240AE00198012102F068FD03E000985E
:1046C000012102F0F3FD044694B126462888C04338
:1046D00040042AD4D5F8AC00B0F1405F23D010DC00
:1046E00008B3B0F1805F14D0B0F1005F0FD115E0D6
:1046F0002A6EDAF8001021F4E0211143CAF8001004
:10470000E4E7B0F1804F0ED0B0F1A04F0BD0012400
:104710000AE00198012102F039FD03E0009801212F
:1047200002F0C4FD044674B126462888C043000444
:104730001FD4E86ED8B1B0F1805F0ED0B0F1005F49
:1047400010D0012414E0D5F8AC20D8F8001021F0E6
:10475000E0411143C8F80010E7E7386840F4003042
:10476000386004E00198012102F010FD044674B1A4
:1047700026462868C043C0011ED4A86CD0B10128C9
:104780000ED0022811D0032814D0012413E0EA6EC1
:10479000DAF8001021F040511143CAF80010E8E7A0
:1047A000386840F40030386004E00198022102F0DB
:1047B000EDFC04466CB126462868C043400255D43F
:1047C0001F48016841F480710160FFF7A3F9814639
:1047D0000EE0AA6CDBF8001021F003011143CBF8C6
:1047E0000010E9E7FFF796F9A0EB090064283BD831
:1047F00013480068C005F5D5BCBBDFF84090B5F89C
:10480000B01009F14409D9F8000001F4407100F436
:104810004070884211D0D9F80010D9F8002021F456
:10482000407142F48032C9F80020D9F8002022F407
:104830008032C9F80020C9F8001003E02C44025867
:1048400000480258D5F8B000B0F5807F19D1FFF7C5
:1048500061F9029011E000BFFFF75CF90299411A7B
:1048600041F28830814208D9032426462878DFF8AF
:104870001494C043C00721D03CE0D9F80000800761
:10488000EAD5D5F8B010C1F301200328FE480DD0B9
:10489000016821F47C510160B5F8B020D9F800100E
:1048A000C2F30B021143C9F80010DFE7F74A0368AF
:1048B00002EA111223F47C511143ECE7A86F182887
:1048C00016D005DCA0B1082808D0102804D10AE0D1
:1048D00020280DD028280BD001240AE001980121BE
:1048E00002F054FC03E00098012102F0DFFC0446D2
:1048F00064B126462878C04380071ED4686F062816
:1049000019D2DFE800F0160C11161616AA6FD9F8A6
:10491000001021F038011143C9F80010EAE70198AE
:10492000012102F033FC03E00098012102F0BEFCFB
:1049300004467CB100E0012426462878C0434007A5
:104940001FD4D5F89000062819D2DFE800F0160C25
:10495000111616166A6FD9F8001021F007011143DD
:10496000C9F80010E9E70198012102F00FFC03E00B
:104970000098012102F09AFC0446A4B100E0012451
:1049800026462878C04380062BD4D5F88C00B0F199
:10499000405F24D011DC10B3B0F1805F15D0B0F1CE
:1049A000005F10D116E0D5F89020D8F8001021F063
:1049B00007011143C8F80010E3E7B0F1804F0ED0B3
:1049C000B0F1A04F0BD001240AE00198002102F0C1
:1049D000DDFB03E00098022102F068FC044694B17C
:1049E00026462878C04340062BD4D5F89800B0F569
:1049F000406F24D011DC10B3B0F5806F15D0B0F546
:104A0000006F10D116E0D5F88C20D9F8001021F0F5
:104A1000E0411143C9F80010E3E7B0F5805F0ED024
:104A2000B0F5A05F0BD001240AE00198002102F04C
:104A3000ADFB03E00098022102F038FC044694B17B
:104A400026462878C04300062BD4D5F89C00B0F544
:104A5000C04F24D011DC10B3B0F5005F15D0B0F515
:104A6000804F10D116E0D5F89820D8F8001021F426
:104A7000E0511143C8F80010E3E7B0F5004F0ED045
:104A8000B0F5204F0BD001240AE00198002102F07C
:104A90007DFB03E00098022102F008FC044654B1BB
:104AA00026462878C04300071ED4D5F88000B0F50C
:104AB000805F0AD00FE0D5F89C20D8F8001021F4D0
:104AC00060411143C8F80010EBE70098022102F0A2
:104AD000EDFB00B10126D5F88020D9F8001021F4B3
:104AE00040511143C9F800102878C043C00613D4C0
:104AF000D5F89400B0F5807F05D10098022102F02E
:104B0000D5FB00B10126D5F89420D8F8001021F487
:104B100040711143C8F800102868C043000316D440
:104B2000D5F8A00038B1B0F5803F09D0B0F5003F0E
:104B30000BD001240AE00198002102F027FB03E0DA
:104B40000098022102F0B2FB04468CB12646286888
:104B5000C043400322D4D5F88400B0F5801F11D0A3
:104B6000B0F5001F13D0B0F5401F15D0012414E09C
:104B7000D5F8A020D8F8001021F440311143C8F82E
:104B80000010E4E7386840F40030386004E0009832
:104B9000012102F08BFB04465CB126462868C04325
:104BA000C0031CD4286D70B1B0F5803F10D0012433
:104BB00014E0D5F88420D9F8001021F440111143F5
:104BC000C9F80010EAE7386840F40030386004E0C3
:104BD0000198022102F0DAFA0446DCB12646286880
:104BE000C043800005D40098022102F05FFB00B1B1
:104BF00001262868C04380031BD4E86FB8B1B0F524
:104C0000807F10D0B0F5007F11D0B0F5407F0ED07E
:104C100001240DE02A6DDBF8001021F480311143EE
:104C2000CBF80010DBE7386840F4003038607CB324
:104C300026462868C043C00207D42A6FDAF800105D
:104C400021F000411143CAF800102868C0438002D7
:104C500007D4AA6EDAF8001021F080711143CAF867
:104C600000102868C043400009D40748016821F4B7
:104C7000004101600168D5F8B42011430160286843
:104C8000C04306E05444025810440258CFFFFF00CE
:104C90001DE007D46A6DDBF8001021F0405111438C
:104CA000CBF800102868C043000208D4D5F888204B
:104CB000D9F8001021F440011143C9F800102879F7
:104CC0000024C04300F00100204309D00EE0EA6F49
:104CD000D9F8001021F440711143C9F80010A8E779
:104CE0000198002102F052FA00B106462879C0432B
:104CF00000F00200204305D10198012102F046FA9C
:104D000000B106462879C04300F00400204305D1D5
:104D10000198022102F03AFA00B106462879C04310
:104D200000F00800204305D10098002102F0BEFAEF
:104D300000B106462879C04300F01000204305D199
:104D40000098012102F0B2FA00B106462879C0436A
:104D500000F02000044304D10098022102F0A6FADA
:104D600000B916B10120BDE8FE8F0020FBE700006E
:104D70002DE9F05F04000F467ED0DFF83882D8F8C6
:104D8000000000F00F00B8420CD2D8F8001021F05B
:104D90000F013943C8F80010D8F8000000F00F00E8
:104DA000B84269D12078844D40070AD52069296826
:104DB00001F07001884204D9296821F07001014393
:104DC000296020787C4E361D00070AD5606931685D
:104DD00001F07001884204D9316821F0700101436B
:104DE00031602078C0060AD5A069316801F4E0611D
:104DF000884204D9316821F4E061014331602078B0
:104E0000DFF8B4B180060BF1080B0CD5E169584608
:104E1000DBF8002002F07002914204D9026822F00F
:104E200070020A430260207880070AD5E06829688A
:104E300001F00F01884204D9296821F00F010143D4
:104E400029602078C0073ED05B49A26828681839DD
:104E500020F47060104328606068022818D003288E
:104E600019D00968012819D0490700294ADADFF862
:104E700048A1AAF1080A00E044E0DAF8002022F094
:104E800007020243CAF80020FEF744FE814612E002
:104E900009688903E9E709688901E6E7C905E4E7E4
:104EA000FEF738FEA0EB090141F28830814202D9B9
:104EB0000320BDE8F09F6168DAF8000000F03800D8
:104EC000B0EBC10FECD1207880070AD5E0682968E3
:104ED00001F00F01884204D2296821F00F0101433B
:104EE0002960D8F80010404601F00F01B9420BD9F3
:104EF000016821F00F0139430160006800F00F00E4
:104F0000B84201D00120D4E7207840070AD52069B3
:104F1000296801F07001884204D2296821F07001EB
:104F200001432960207800070AD56069316801F0E3
:104F30007001884204D2316821F070010143316070
:104F40002078C0060AD5A069316801F4E061884282
:104F500004D2316821F4E061014331602078800699
:104F60000CD5E1695846DBF8002002F0700291424E
:104F700004D2026822F070020A43026000F09AF83C
:104F80000E492A682B68C2F3032203F00F038A5CE0
:104F9000C95C02F01F0201F01F01D040084A20FA4C
:104FA00001F111600749086007480068BDE8F05F3B
:104FB000FFF724B800200052184402589CC800088B
:104FC00028000024240000241C00002470B5144C88
:104FD0003F220260124A24680832131D114D04F06A
:104FE0000704446016681C1D06F470668660166827
:104FF00006F00F06C660126802F0700202611A68BD
:1050000002F0700242611A6802F4E0628261226872
:1050100002F07002C261286800F00F00086070BDE5
:10502000104402580020005230B500F043F80B4AFB
:105030000B490C4B15681468C5F3032204F00F04E8
:105040008A5C095D02F01F0201F01F01D040064A90
:1050500020FA01F119601060084630BD184402586A
:105060009CC80008280000242400002400B5FFF795
:10507000DBFF05490968054AC1F30211515C01F0E3
:105080001F01C84000BD00001C4402589CC8000815
:1050900000B5FFF7C9FF05490968054AC1F30221B8
:1050A000515C01F01F01C84000BD00001C440258C3
:1050B0009CC80008454970B545480968434B103BFA
:1050C00011F0380208D00111082A03D0102A0BD0A1
:1050D000182A0BD0084670BD19688906FBD51968D7
:1050E000C1F3C101C84070BD3A4870BD3749374D62
:1050F00018310C1D24350A68096826682D6802F0ED
:10510000030406F00102C1F30511C5F3CC0515FB3C
:1051100002F200EE102AB8EE400AE9B32F4ADFEDA2
:105120002E0AB7EE001A6CB1DFED2D1A012C01D05A
:10513000022C43D002EE101A1068F8EE422A81EEDB
:10514000A22A1EE01C68A40611D51B6801EE901A65
:105150001168C3F3C103F8EE612AD84001EE900A4A
:10516000C1F30800F8EE611A81EEA22A0BE001EE0D
:10517000901ADFED1C2A00BFF8EE611A106882EE6B
:10518000A12AC0F3080001EE900AF8EE611A40EE81
:10519000201A31EE810A00E015E022EE000A1068C4
:1051A000C0F34620401C00EE900AF8EE600A80EE44
:1051B000201ABCEEC10A10EE100A70BD01EE901A62
:1051C000DFED092AD8E7002070BD00001044025826
:1051D0000090D00340787D0100000039304402582F
:1051E0000024744A0024744C20BCBE4B2DE9F05FAF
:1051F00004007DD0FF4F2078FE4D1837DFF8F48390
:10520000103DC00748D0D8F80000396800F03800D9
:10521000102815D0182803D101F0030002280FD060
:105220006068B0F5803F12D010B1B0F5A02F18D053
:10523000286820F480302860286820F4802009E065
:105240002868800328D560680028D2D024E0286828
:1052500040F480302860606888B1FEF75BFC064649
:1052600009E0286840F480202860F0E7FEF752FC4F
:10527000801B64287ED828688003F7D50CE0FEF7F1
:1052800049FC064605E000BFFEF744FC801B64288D
:10529000F0D828688003F7D42078800756D5D8F84E
:1052A0000000DFF85093396810F03800A9F10C09BC
:1052B0000ED0182801D188070AD0E068A8B3296861
:1052C00021F0190101432960FEF724FC064628E07D
:1052D0002868400702D5E06800288AD0E16828687D
:1052E00020F0190008432860FEF714FC064606E08B
:1052F000D2E000BFFEF70EFC801B0228BAD8286857
:105300004007F7D5217CD9F8002022F0FE4242EA7E
:105310000161C9F8001019E0FEF7FCFB801B0228B0
:10532000A8D828684007F7D5ECE7FFE7286820F001
:1053300001002860FEF7EEFB064604E0FEF7EAFBFC
:10534000801B022896D828684007F7D42078C0062A
:1053500046D5D8F80000DFF89C92396800F0380094
:10536000A9F10409082812D0182805D101F003007A
:10537000012800E0CEE00AD0E0690028286820D0AB
:1053800040F080002860FEF7C5FB064615E028685F
:10539000C00502D5E06980287ED194F82010D9F8A4
:1053A000002022F07C5242EA0161C9F8001017E0A7
:1053B000FEF7B0FB801B0228A0D82868C005F7D5EF
:1053C000EBE720F080002860FEF7A4FB064604E02F
:1053D000FEF7A0FB801B022890D82868C005F7D4F0
:1053E0002078000729D58348616964300029814607
:1053F000016811D041F001010160FEF78BFB064608
:1054000005E000BFFEF786FB801B022888D8D9F88C
:1054100000008007F6D510E021F001010160FEF7E1
:1054200079FB064605E000BFFEF774FB801B0228EF
:1054300070D8D9F800008007F6D42078800623D5EC
:10544000A0690028286810D040F480502860FEF73A
:1054500061FB064605E000BFFEF75CFB801B0228EF
:1054600058D828688004F7D50EE020F480502860D2
:10547000FEF750FB064604E0FEF74CFB801B0228BB
:1054800048D828688004F7D42078400751D5DFF841
:105490006891D9F8001000E015E141F48071C9F875
:1054A0000010FEF737FB064605E000BFFEF732FBB3
:1054B000801B64282ED8D9F80000C005F6D54D4EC3
:1054C000A068603601280AD008B1052813D03068DA
:1054D00020F001003060306820F0040002E0306805
:1054E00040F001003060A06841F2883A98B1FEF7C0
:1054F00011FB81460AE0306840F004003060EEE7BE
:10550000FEF708FBA0EB0901514503D8306880077E
:10551000F6D50EE072E0FEF7FDFA814606E000BF28
:10552000FEF7F8FAA0EB0901514567D8306880070B
:10553000F6D4606A00287CD0DFF8B8A0D8F8001054
:105540000AF1200A4FF6F87B0AF10408C1F3C20100
:105550000329AAF104096DD00228286820F0807080
:10556000286003D0FEF7D6FA044681E0FEF7D2FAAF
:10557000064604E0FEF7CEFA801B022875D828689C
:105580008001F7D4E26A40F2F331386854F8283FDA
:10559000884340EA021018433860217B4FF4FE0C28
:1055A00022894FF0FE47208A4902267D521E401E66
:1055B000A1F5007189B2C2F308021143761E0CEA0C
:1055C00000400143484607EA06621143CAF800104A
:1055D000D9F8001021F00101C9F80010D8F8003006
:1055E000266A23EA0B0343EAC601C8F80010D9F87B
:1055F000001004E0104402580048025835E0A26947
:1056000021F00C011143C9F800100168E26921F092
:10561000020111430160016841F4803101600168B9
:1056200041F400310160016841F4802101600168AA
:1056300001E06CE020E041F001010160286840F0E9
:1056400080702860FEF766FA044604E0FEF762FA0E
:10565000001B022809D828688001F7D557E000BF51
:10566000FEF758FA001B022802D90320BDE8F09F7C
:1056700028688001F4D44AE039680128DAF800008B
:1056800021D0A26A01F0030393421CD1E26AC1F364
:1056900005118A4217D1216BC0F30802491E8A42C4
:1056A00011D1616BC0F34622491E91420BD1A16B0F
:1056B000C0F30642491E914205D1E16BC0F306607A
:1056C000491E814201D00120D0E7A16C4646D8F89E
:1056D0000000C0F3CC00814219D0D9F800004D463B
:1056E00020F00100C9F80000FEF714FA4FEA0007A5
:1056F000FEF710FAB842FBD0A26C306820EA0B002B
:1057000040EAC2003060286840F0010028600020B4
:10571000ACE7704770477047F0B590F83C20012A1D
:1057200041D0224E012480F83C40022280F83D20E6
:1057300002681F4D5368B242D2F808C001D0AA4295
:1057400003D14F6823F470033B430F6823F07003C9
:105750001F4357600268B24219D0B2F1804F16D091
:10576000144B9A4213D0144B9A4210D0134B9A42C6
:105770000DD0AA420BD0124B9A4208D0114B9A423C
:1057800005D0114B9A4202D0104B9A4204D189683D
:105790002CF0800319439160002180F83D4080F88F
:1057A0003C100846F0BD0220F0BD000000000140A2
:1057B000000401400004004000080040000C0040CC
:1057C000001800400040014000E0004000E40040BC
:1057D00010B5040003D094F83D0010B107E001209B
:1057E00010BD002084F83C00204600F023F8022081
:1057F00084F83D002068211D01F0D0FE012084F8CE
:10580000480084F83E0084F83F0084F8400084F8A3
:10581000410084F8420084F8430084F8440084F88E
:10582000450084F8460084F8470084F83D000020D5
:1058300010BD000008B50068B0F1804F12D10A48D1
:10584000016841F00101016000680022052100F0BB
:10585000010000901C20FEF733FCBDE808401C202E
:10586000FEF720BC08BD0000E844025890F83D1047
:10587000012901D0012070471A4A022180F83D1009
:105880000168CB6843F00103CB60006890421AD0F6
:10589000B0F1804F17D01449884214D01349884280
:1058A00011D0134988420ED0124988420BD01249B8
:1058B000884208D01149884205D01149884202D057
:1058C0001049884207D181680F4A1140062906D045
:1058D000B1F5803F03D0016841F001010160002073
:1058E0007047000000000140000400400008004034
:1058F000000C00400004014000180040004001403E
:1059000000E0004000E400400700010070B50446DC
:1059100090F83C000025012814D03A4B012684F869
:105920003C60022084F83D0022689068184020F412
:105930007F409060086870282FD010DC10F00F0FA7
:1059400003D022E04FF0020070BD4FEA2012072A78
:105950001BD2DFE802F0535353534B394100B0F1EF
:10596000101F4BD009DCB0F5805F0FD0B0F5005FA1
:105970001ED0B0F5801F08D140E0A0F5801120397D
:105980003CD010293AD0202938D0012584F83D6038
:10599000002084F83C00284670BD4A682068D1E9A0
:1059A000021301F06BFE2068816841F0770109E085
:1059B0004A682068D1E9021301F060FE206881681E
:1059C00041F480418160E1E7CA684968206801F0DC
:1059D00069FE2068502106E0CA684968206801F025
:1059E00072FE2068602101F053FECFE7CA68496863
:1059F000206801F057FE20684021F4E72268014644
:105A00001046F0E788FFCEFF70472DE9F0410446CD
:105A100000680027C6680569A90713D5B10711D525
:105A2000FA1E0261012121772068806980072046E3
:105A300002D0FFF7E9FF04E000F08BF8204600F009
:105A400089F82777680716D5700714D522680220D1
:105A50006FF00401116120772068806910F4407FA5
:105A6000204602D0FFF7D0FF04E000F072F8204695
:105A700000F070F82777280715D5300713D522686E
:105A800004206FF00801116120772068C069800749
:105A9000204602D0FFF7B8FF04E000F05AF8204695
:105AA00000F058F82777E80616D5F00614D52268D6
:105AB00008206FF01001116120772068C06910F490
:105AC000407F204602D0FFF79FFF04E000F041F83E
:105AD000204600F03FF82777E80708D0F00706D007
